{
  "_format": "hh-sol-artifact-1",
  "contractName": "CommitRecover",
  "sourceName": "contracts/CommitRecover.sol",
  "abi": [
    {
      "inputs": [],
      "stateMutability": "nonpayable",
      "type": "constructor"
    },
    {
      "anonymous": false,
      "inputs": [
        {
          "indexed": false,
          "internalType": "uint256",
          "name": "round",
          "type": "uint256"
        },
        {
          "indexed": false,
          "internalType": "uint256",
          "name": "omega",
          "type": "uint256"
        },
        {
          "indexed": false,
          "internalType": "uint256",
          "name": "calculatedTimestamp",
          "type": "uint256"
        },
        {
          "indexed": false,
          "internalType": "bool",
          "name": "isCompleted",
          "type": "bool"
        }
      ],
      "name": "CalculatedOmega",
      "type": "event"
    },
    {
      "anonymous": false,
      "inputs": [
        {
          "indexed": false,
          "internalType": "address",
          "name": "participant",
          "type": "address"
        },
        {
          "indexed": false,
          "internalType": "uint256",
          "name": "commit",
          "type": "uint256"
        },
        {
          "indexed": false,
          "internalType": "string",
          "name": "commitsString",
          "type": "string"
        },
        {
          "indexed": false,
          "internalType": "uint256",
          "name": "commitCount",
          "type": "uint256"
        },
        {
          "indexed": false,
          "internalType": "uint256",
          "name": "commitTimestamp",
          "type": "uint256"
        }
      ],
      "name": "CommitC",
      "type": "event"
    },
    {
      "anonymous": false,
      "inputs": [
        {
          "indexed": false,
          "internalType": "address",
          "name": "msgSender",
          "type": "address"
        },
        {
          "indexed": false,
          "internalType": "uint256",
          "name": "recov",
          "type": "uint256"
        },
        {
          "indexed": false,
          "internalType": "uint256",
          "name": "omegaRecov",
          "type": "uint256"
        },
        {
          "indexed": false,
          "internalType": "uint256",
          "name": "recoveredTimestamp",
          "type": "uint256"
        }
      ],
      "name": "Recovered",
      "type": "event"
    },
    {
      "anonymous": false,
      "inputs": [
        {
          "indexed": false,
          "internalType": "address",
          "name": "participant",
          "type": "address"
        },
        {
          "indexed": false,
          "internalType": "uint256",
          "name": "a",
          "type": "uint256"
        },
        {
          "indexed": false,
          "internalType": "uint256",
          "name": "revealLeftCount",
          "type": "uint256"
        },
        {
          "indexed": false,
          "internalType": "uint256",
          "name": "revealTimestamp",
          "type": "uint256"
        }
      ],
      "name": "RevealA",
      "type": "event"
    },
    {
      "anonymous": false,
      "inputs": [
        {
          "indexed": false,
          "internalType": "address",
          "name": "msgSender",
          "type": "address"
        },
        {
          "indexed": false,
          "internalType": "uint256",
          "name": "startTime",
          "type": "uint256"
        },
        {
          "indexed": false,
          "internalType": "uint256",
          "name": "commitDuration",
          "type": "uint256"
        },
        {
          "indexed": false,
          "internalType": "uint256",
          "name": "commitRevealDuration",
          "type": "uint256"
        },
        {
          "indexed": false,
          "internalType": "uint256",
          "name": "n",
          "type": "uint256"
        },
        {
          "indexed": false,
          "internalType": "uint256",
          "name": "g",
          "type": "uint256"
        },
        {
          "indexed": false,
          "internalType": "uint256",
          "name": "h",
          "type": "uint256"
        },
        {
          "indexed": false,
          "internalType": "uint256",
          "name": "T",
          "type": "uint256"
        },
        {
          "indexed": false,
          "internalType": "uint256",
          "name": "round",
          "type": "uint256"
        }
      ],
      "name": "Start",
      "type": "event"
    },
    {
      "inputs": [],
      "name": "calculateOmega",
      "outputs": [
        {
          "internalType": "uint256",
          "name": "",
          "type": "uint256"
        }
      ],
      "stateMutability": "nonpayable",
      "type": "function"
    },
    {
      "inputs": [],
      "name": "checkStage",
      "outputs": [],
      "stateMutability": "nonpayable",
      "type": "function"
    },
    {
      "inputs": [
        {
          "internalType": "uint256",
          "name": "_commit",
          "type": "uint256"
        }
      ],
      "name": "commit",
      "outputs": [],
      "stateMutability": "nonpayable",
      "type": "function"
    },
    {
      "inputs": [],
      "name": "commitDuration",
      "outputs": [
        {
          "internalType": "uint256",
          "name": "",
          "type": "uint256"
        }
      ],
      "stateMutability": "view",
      "type": "function"
    },
    {
      "inputs": [],
      "name": "commitRevealDuration",
      "outputs": [
        {
          "internalType": "uint256",
          "name": "",
          "type": "uint256"
        }
      ],
      "stateMutability": "view",
      "type": "function"
    },
    {
      "inputs": [
        {
          "internalType": "uint256",
          "name": "round",
          "type": "uint256"
        },
        {
          "internalType": "uint256",
          "name": "index",
          "type": "uint256"
        }
      ],
      "name": "commitRevealValues",
      "outputs": [
        {
          "internalType": "uint256",
          "name": "c",
          "type": "uint256"
        },
        {
          "internalType": "uint256",
          "name": "a",
          "type": "uint256"
        },
        {
          "internalType": "address",
          "name": "participantAddress",
          "type": "address"
        }
      ],
      "stateMutability": "view",
      "type": "function"
    },
    {
      "inputs": [],
      "name": "commitsString",
      "outputs": [
        {
          "internalType": "string",
          "name": "",
          "type": "string"
        }
      ],
      "stateMutability": "view",
      "type": "function"
    },
    {
      "inputs": [],
      "name": "count",
      "outputs": [
        {
          "internalType": "uint256",
          "name": "",
          "type": "uint256"
        }
      ],
      "stateMutability": "view",
      "type": "function"
    },
    {
      "inputs": [
        {
          "internalType": "uint256",
          "name": "_round",
          "type": "uint256"
        },
        {
          "components": [
            {
              "internalType": "uint256",
              "name": "n",
              "type": "uint256"
            },
            {
              "internalType": "uint256",
              "name": "x",
              "type": "uint256"
            },
            {
              "internalType": "uint256",
              "name": "y",
              "type": "uint256"
            },
            {
              "internalType": "uint256",
              "name": "T",
              "type": "uint256"
            },
            {
              "internalType": "uint256",
              "name": "v",
              "type": "uint256"
            }
          ],
          "internalType": "struct Pietrzak_VDF.VDFClaim[]",
          "name": "proofs",
          "type": "tuple[]"
        }
      ],
      "name": "recover",
      "outputs": [],
      "stateMutability": "nonpayable",
      "type": "function"
    },
    {
      "inputs": [
        {
          "internalType": "uint256",
          "name": "_a",
          "type": "uint256"
        }
      ],
      "name": "reveal",
      "outputs": [],
      "stateMutability": "nonpayable",
      "type": "function"
    },
    {
      "inputs": [],
      "name": "round",
      "outputs": [
        {
          "internalType": "uint256",
          "name": "",
          "type": "uint256"
        }
      ],
      "stateMutability": "view",
      "type": "function"
    },
    {
      "inputs": [],
      "name": "stage",
      "outputs": [
        {
          "internalType": "enum CommitRecover.Stages",
          "name": "",
          "type": "uint8"
        }
      ],
      "stateMutability": "view",
      "type": "function"
    },
    {
      "inputs": [
        {
          "internalType": "uint256",
          "name": "_commitDuration",
          "type": "uint256"
        },
        {
          "internalType": "uint256",
          "name": "_commitRevealDuration",
          "type": "uint256"
        },
        {
          "internalType": "uint256",
          "name": "_n",
          "type": "uint256"
        },
        {
          "components": [
            {
              "internalType": "uint256",
              "name": "n",
              "type": "uint256"
            },
            {
              "internalType": "uint256",
              "name": "x",
              "type": "uint256"
            },
            {
              "internalType": "uint256",
              "name": "y",
              "type": "uint256"
            },
            {
              "internalType": "uint256",
              "name": "T",
              "type": "uint256"
            },
            {
              "internalType": "uint256",
              "name": "v",
              "type": "uint256"
            }
          ],
          "internalType": "struct Pietrzak_VDF.VDFClaim[]",
          "name": "_proofs",
          "type": "tuple[]"
        }
      ],
      "name": "start",
      "outputs": [],
      "stateMutability": "nonpayable",
      "type": "function"
    },
    {
      "inputs": [],
      "name": "startTime",
      "outputs": [
        {
          "internalType": "uint256",
          "name": "",
          "type": "uint256"
        }
      ],
      "stateMutability": "view",
      "type": "function"
    },
    {
      "inputs": [
        {
          "internalType": "address",
          "name": "owner",
          "type": "address"
        },
        {
          "internalType": "uint256",
          "name": "round",
          "type": "uint256"
        }
      ],
      "name": "userInfosAtRound",
      "outputs": [
        {
          "internalType": "uint256",
          "name": "index",
          "type": "uint256"
        },
        {
          "internalType": "bool",
          "name": "committed",
          "type": "bool"
        },
        {
          "internalType": "bool",
          "name": "revealed",
          "type": "bool"
        }
      ],
      "stateMutability": "view",
      "type": "function"
    },
    {
      "inputs": [
        {
          "internalType": "uint256",
          "name": "round",
          "type": "uint256"
        }
      ],
      "name": "valuesAtRound",
      "outputs": [
        {
          "internalType": "uint256",
          "name": "omega",
          "type": "uint256"
        },
        {
          "internalType": "uint256",
          "name": "bStar",
          "type": "uint256"
        },
        {
          "internalType": "uint256",
          "name": "numOfParticipants",
          "type": "uint256"
        },
        {
          "internalType": "uint256",
          "name": "g",
          "type": "uint256"
        },
        {
          "internalType": "uint256",
          "name": "h",
          "type": "uint256"
        },
        {
          "internalType": "uint256",
          "name": "n",
          "type": "uint256"
        },
        {
          "internalType": "uint256",
          "name": "T",
          "type": "uint256"
        },
        {
          "internalType": "bool",
          "name": "isCompleted",
          "type": "bool"
        },
        {
          "internalType": "bool",
          "name": "isAllRevealed",
          "type": "bool"
        }
      ],
      "stateMutability": "view",
      "type": "function"
    }
  ],
  "bytecode": "0x60806040523480156200001157600080fd5b506002600660006101000a81548160ff021916908360028111156200003b576200003a62000046565b5b021790555062000075565b7f4e487b7100000000000000000000000000000000000000000000000000000000600052602160045260246000fd5b61341880620000856000396000f3fe608060405234801561001057600080fd5b50600436106101005760003560e01c806378e9792511610097578063c040e6b811610066578063c040e6b814610297578063c2ca0ac5146102b5578063dca669e4146102d1578063f4f98ad5146102ef57610100565b806378e97925146102215780637f93c7511461023f578063a58be66114610249578063b0e9eb3f1461026557610100565b806350d30cbf116100d357806350d30cbf146101915780636f833811146101ad57806373fa4f46146101cb57806377f0ade9146101e957610100565b806306661abd1461010557806312ce990614610123578063146ca5311461014157806322fadc281461015f575b600080fd5b61010d61030b565b60405161011a9190611ff7565b60405180910390f35b61012b610311565b6040516101389190611ff7565b60405180910390f35b610149610607565b6040516101569190611ff7565b60405180910390f35b61017960048036038101906101749190612052565b61060d565b604051610188939291906120d3565b60405180910390f35b6101ab60048036038101906101a6919061216f565b610664565b005b6101b5610a83565b6040516101c29190611ff7565b60405180910390f35b6101d3610a89565b6040516101e09190611ff7565b60405180910390f35b61020360048036038101906101fe91906121cf565b610a8f565b60405161021899989796959493929190612217565b60405180910390f35b610229610af7565b6040516102369190611ff7565b60405180910390f35b610247610afd565b005b610263600480360381019061025e9190612484565b610c99565b005b61027f600480360381019061027a9190612533565b610fb9565b60405161028e93929190612573565b60405180910390f35b61029f61100a565b6040516102ac9190612621565b60405180910390f35b6102cf60048036038101906102ca91906121cf565b61101d565b005b6102d96113b8565b6040516102e691906126bb565b60405180910390f35b610309600480360381019061030491906121cf565b611446565b005b60035481565b60008060045490506008600082815260200190815260200160002060070160019054906101000a900460ff1661037c576040517f08c379a000000000000000000000000000000000000000000000000000000000815260040161037390612729565b60405180910390fd5b6008600082815260200190815260200160002060070160009054906101000a900460ff16156103e0576040517f08c379a00000000000000000000000000000000000000000000000000000000081526004016103d790612795565b60405180910390fd5b6103e8610afd565b6103f260026117f6565b6000600860008381526020019081526020016000206002015490506000600190506000600860008581526020019081526020016000206001015490506000600860006004548152602001908152602001600020600401549050600060086000600454815260200190815260200160002060050154905060006001905060005b86811015610548578280610488576104876127b5565b5b61053161050386866104c0600760008f815260200190815260200160002060008881526020019081526020016000206000015461186e565b6104c98b61186e565b6040516020016104da929190612820565b6040516020818303038152906040528051906020012060001c6104fd9190612844565b8761193c565b600760008c81526020019081526020016000206000858152602001908152602001600020600101548661193c565b870995508080610540906128a4565b915050610471565b50846008600089815260200190815260200160002060000181905550806008600089815260200190815260200160002060070160006101000a81548160ff0219169083151502179055506002600660006101000a81548160ff021916908360028111156105b8576105b76125aa565b5b02179055507f31d4d513959d79380d7f8af557ac2408b4d6c2cf59af943dd997a11100520f66878642846040516105f294939291906128ec565b60405180910390a18497505050505050505090565b60045481565b6007602052816000526040600020602052806000526040600020600091509150508060000154908060010154908060020160009054906101000a900473ffffffffffffffffffffffffffffffffffffffff16905083565b8181600081811061067857610677612931565b5b905060a00201604001356008600060045481526020019081526020016000206005015481106106dc576040517f08c379a00000000000000000000000000000000000000000000000000000000081526004016106d3906129ac565b60405180910390fd5b600060019050600060086000878152602001908152602001600020600501549050600060086000888152602001908152602001600020600101549050610720610afd565b61072a600061199f565b6008600088815260200190815260200160002060070160009054906101000a900460ff161561078e576040517f08c379a000000000000000000000000000000000000000000000000000000000815260040161078590612795565b60405180910390fd5b858560008181106107a2576107a1612931565b5b905060a0020160600135600860008981526020019081526020016000206006015414610803576040517f08c379a00000000000000000000000000000000000000000000000000000000081526004016107fa90612a18565b60405180910390fd5b6108628686808060200260200160405190810160405280939291908181526020016000905b8282101561085857848483905060a002018036038101906108499190612a38565b81526020019060010190610828565b5050505050611a17565b5060005b600860008981526020019081526020016000206002015481101561092e576000600760008a81526020019081526020016000206000838152602001908152602001600020600001549050600061090382866108c08561186e565b6108c98861186e565b6040516020016108da929190612820565b6040516020818303038152906040528051906020012060001c6108fd9190612844565b8761193c565b90508480610914576109136127b5565b5b818709955050508080610926906128a4565b915050610866565b508585600081811061094357610942612931565b5b905060a0020160200135831461098e576040517f08c379a000000000000000000000000000000000000000000000000000000000815260040161098590612ab1565b60405180910390fd5b60016008600089815260200190815260200160002060070160006101000a81548160ff021916908315150217905550858560008181106109d1576109d0612931565b5b905060a002016040013560086000898152602001908152602001600020600001819055506002600660006101000a81548160ff02191690836002811115610a1b57610a1a6125aa565b5b02179055507f03fc2d4f2e2e4e84069307a4d3a9b7ad25d93e2026627031a87b54a1c61907ce338488886000818110610a5757610a56612931565b5b905060a002016040013542604051610a729493929190612ad1565b60405180910390a150505050505050565b60015481565b60025481565b60086020528060005260406000206000915090508060000154908060010154908060020154908060030154908060040154908060050154908060060154908060070160009054906101000a900460ff16908060070160019054906101000a900460ff16905089565b60005481565b60008054905060006002811115610b1757610b166125aa565b5b600660009054906101000a900460ff166002811115610b3957610b386125aa565b5b148015610b53575060015481610b4f9190612b16565b4210155b15610c2b57600060035414610bfe57610b6a611b5d565b600354600860006004548152602001908152602001600020600201819055506000600860006004548152602001908152602001600020600501546005604051602001610bb69190612c42565b6040516020818303038152906040528051906020012060001c610bd99190612844565b9050806008600060045481526020019081526020016000206001018190555050610c2a565b6002600660006101000a81548160ff02191690836002811115610c2457610c236125aa565b5b02179055505b5b60016002811115610c3f57610c3e6125aa565b5b600660009054906101000a900460ff166002811115610c6157610c606125aa565b5b148015610c88575060025481610c779190612b16565b42101580610c8757506000600354145b5b15610c9657610c95611b5d565b5b50565b8181600081518110610cae57610cad612931565b5b60200260200101516020015110610cfa576040517f08c379a0000000000000000000000000000000000000000000000000000000008152600401610cf1906129ac565b60405180910390fd5b828410610d3c576040517f08c379a0000000000000000000000000000000000000000000000000000000008152600401610d3390612ccb565b60405180910390fd5b600280811115610d4f57610d4e6125aa565b5b600660009054906101000a900460ff166002811115610d7157610d706125aa565b5b14610db1576040517f08c379a0000000000000000000000000000000000000000000000000000000008152600401610da890612d37565b60405180910390fd5b610dba81611a17565b50600160046000828254610dce9190612b16565b925050819055506000600660006101000a81548160ff02191690836002811115610dfb57610dfa6125aa565b5b021790555042600081905550836001819055508260028190555080600081518110610e2957610e28612931565b5b6020026020010151606001516008600060045481526020019081526020016000206006018190555080600081518110610e6557610e64612931565b5b6020026020010151602001516008600060045481526020019081526020016000206003018190555080600081518110610ea157610ea0612931565b5b60200260200101516040015160086000600454815260200190815260200160002060040181905550816008600060045481526020019081526020016000206005018190555060006003819055506040518060200160405280600081525060059081610f0c9190612eee565b507f1a5e4fa05b9601af979a44c50ef7e103b9b51cd105eb42040b5817eb3e58449c334286868686600081518110610f4757610f46612931565b5b60200260200101516020015187600081518110610f6757610f66612931565b5b60200260200101516040015188600081518110610f8757610f86612931565b5b602002602001015160600151600454604051610fab99989796959493929190612fc0565b60405180910390a150505050565b6009602052816000526040600020602052806000526040600020600091509150508060000154908060010160009054906101000a900460ff16908060010160019054906101000a900460ff16905083565b600660009054906101000a900460ff1681565b80600860006004548152602001908152602001600020600501548110611078576040517f08c379a000000000000000000000000000000000000000000000000000000000815260040161106f906129ac565b60405180910390fd5b600060045490506000600960003373ffffffffffffffffffffffffffffffffffffffff1673ffffffffffffffffffffffffffffffffffffffff1681526020019081526020016000206000838152602001908152602001600020604051806060016040529081600082015481526020016001820160009054906101000a900460ff161515151581526020016001820160019054906101000a900460ff16151515158152505090508060200151611162576040517f08c379a000000000000000000000000000000000000000000000000000000000815260040161115990613099565b60405180910390fd5b8060400151156111a7576040517f08c379a000000000000000000000000000000000000000000000000000000000815260040161119e90613105565b60405180910390fd5b600760008381526020019081526020016000206000826000015181526020019081526020016000206000015461120a600860008581526020019081526020016000206003015486600860008781526020019081526020016000206005015461193c565b1461124a576040517f08c379a000000000000000000000000000000000000000000000000000000000815260040161124190613171565b60405180910390fd5b611252610afd565b61125c60016117f6565b600060036000815461126d90613191565b919050819055905084600760008581526020019081526020016000206000846000015181526020019081526020016000206001018190555060008103611308576002600660006101000a81548160ff021916908360028111156112d3576112d26125aa565b5b021790555060016008600085815260200190815260200160002060070160016101000a81548160ff0219169083151502179055505b6001600960003373ffffffffffffffffffffffffffffffffffffffff1673ffffffffffffffffffffffffffffffffffffffff168152602001908152602001600020600085815260200190815260200160002060010160016101000a81548160ff0219169083151502179055507f0167147e5476fb37532a0aab79dea3eb6b8fe0fbd723ac6025b0de29237b0496338683426040516113a99493929190612ad1565b60405180910390a15050505050565b600580546113c590612b79565b80601f01602080910402602001604051908101604052809291908181526020018280546113f190612b79565b801561143e5780601f106114135761010080835404028352916020019161143e565b820191906000526020600020905b81548152906001019060200180831161142157829003601f168201915b505050505081565b806008600060045481526020019081526020016000206005015481106114a1576040517f08c379a0000000000000000000000000000000000000000000000000000000008152600401611498906129ac565b60405180910390fd5b600960003373ffffffffffffffffffffffffffffffffffffffff1673ffffffffffffffffffffffffffffffffffffffff1681526020019081526020016000206000600454815260200190815260200160002060010160009054906101000a900460ff1615611544576040517f08c379a000000000000000000000000000000000000000000000000000000000815260040161153b90613206565b60405180910390fd5b61154c610afd565b61155660006117f6565b6000600354905060006005805461156c90612b79565b80601f016020809104026020016040519081016040528092919081815260200182805461159890612b79565b80156115e55780601f106115ba576101008083540402835291602001916115e5565b820191906000526020600020905b8154815290600101906020018083116115c857829003601f168201915b50505050509050806115f68561186e565b604051602001611607929190612820565b6040516020818303038152906040529050604051806060016040528083815260200160011515815260200160001515815250600960003373ffffffffffffffffffffffffffffffffffffffff1673ffffffffffffffffffffffffffffffffffffffff168152602001908152602001600020600060045481526020019081526020016000206000820151816000015560208201518160010160006101000a81548160ff02191690831515021790555060408201518160010160016101000a81548160ff0219169083151502179055509050506040518060600160405280858152602001600081526020013373ffffffffffffffffffffffffffffffffffffffff168152506007600060045481526020019081526020016000206000848152602001908152602001600020600082015181600001556020820151816001015560408201518160020160006101000a81548173ffffffffffffffffffffffffffffffffffffffff021916908373ffffffffffffffffffffffffffffffffffffffff160217905550905050806005908161179d9190612eee565b50816117a8906128a4565b9150816003819055507fbd41a700367cdf3254812a81baad606f9d6102e946f1bb28aab0a4afe25ef0c933858385426040516117e8959493929190613226565b60405180910390a150505050565b806002811115611809576118086125aa565b5b600660009054906101000a900460ff16600281111561182b5761182a6125aa565b5b1461186b576040517f08c379a0000000000000000000000000000000000000000000000000000000008152600401611862906132cc565b60405180910390fd5b50565b60606000600161187d84611c44565b01905060008167ffffffffffffffff81111561189c5761189b6122b5565b5b6040519080825280601f01601f1916602001820160405280156118ce5781602001600182028036833780820191505090505b509050600082602001820190505b600115611931578080600190039150507f3031323334353637383961626364656600000000000000000000000000000000600a86061a8153600a8581611925576119246127b5565b5b049450600085036118dc575b819350505050919050565b600080600190505b60008411156119945760018085160361196c578280611966576119656127b5565b5b85820990505b828061197b5761197a6127b5565b5b858609945060028461198d91906132ec565b9350611944565b809150509392505050565b8060028111156119b2576119b16125aa565b5b600660009054906101000a900460ff1660028111156119d4576119d36125aa565b5b11611a14576040517f08c379a0000000000000000000000000000000000000000000000000000000008152600401611a0b906132cc565b60405180910390fd5b50565b6000808251905060005b81811015611b51576000611a4e858381518110611a4157611a40612931565b5b6020026020010151611d97565b90508060000151611a655760009350505050611b58565b8060200151611a7a5760019350505050611b58565b84600183611a889190612b16565b81518110611a9957611a98612931565b5b602002602001015160200151816040015114611abb5760009350505050611b58565b84600183611ac99190612b16565b81518110611ada57611ad9612931565b5b602002602001015160400151816060015114611afc5760009350505050611b58565b84600183611b0a9190612b16565b81518110611b1b57611b1a612931565b5b602002602001015160600151816080015114611b3d5760009350505050611b58565b508080611b49906128a4565b915050611a21565b5060019150505b919050565b600280811115611b7057611b6f6125aa565b5b600660009054906101000a900460ff166002811115611b9257611b916125aa565b5b03611bd2576040517f08c379a0000000000000000000000000000000000000000000000000000000008152600401611bc990613369565b60405180910390fd5b600380611be257611be16127b5565b5b6001600660009054906101000a900460ff166002811115611c0657611c056125aa565b5b086002811115611c1957611c186125aa565b5b600660006101000a81548160ff02191690836002811115611c3d57611c3c6125aa565b5b0217905550565b600080600090507a184f03e93ff9f4daa797ed6e38ed64bf6a1f0100000000000000008310611ca2577a184f03e93ff9f4daa797ed6e38ed64bf6a1f0100000000000000008381611c9857611c976127b5565b5b0492506040810190505b6d04ee2d6d415b85acef81000000008310611cdf576d04ee2d6d415b85acef81000000008381611cd557611cd46127b5565b5b0492506020810190505b662386f26fc100008310611d0e57662386f26fc100008381611d0457611d036127b5565b5b0492506010810190505b6305f5e1008310611d37576305f5e1008381611d2d57611d2c6127b5565b5b0492506008810190505b6127108310611d5c576127108381611d5257611d516127b5565b5b0492506004810190505b60648310611d7f5760648381611d7557611d746127b5565b5b0492506002810190505b600a8310611d8e576001810190505b80915050919050565b611d9f611fab565b6001826060015103611e3757611dbf82602001516002846000015161193c565b826040015103611e00576040518060a00160405280600115158152602001600015158152602001600081526020016000815260200160008152509050611f67565b6040518060a00160405280600015158152602001600015158152602001600081526020016000815260200160008152509050611f67565b600080836040015190506000611e8a8560200151611e58876040015161186e565b611e65886080015161186e565b604051602001611e76929190612820565b604051602081830303815290604052611f6c565b90506000600186606001511603611eb35760028560600151611eac91906132ec565b9250611ef0565b600260018660600151611ec69190612b16565b611ed091906132ec565b925084600001518283611ee39190613389565b611eed9190612844565b91505b6040518060a00160405280600115158152602001600115158152602001611f32611f238860200151858a6000015161193c565b8860800151896000015161193c565b8152602001611f58611f4d8860800151858a6000015161193c565b85896000015161193c565b81526020018481525093505050505b919050565b60008282604051602001611f8091906133cb565b6040516020818303038152906040528051906020012060001c611fa39190612844565b905092915050565b6040518060a001604052806000151581526020016000151581526020016000815260200160008152602001600081525090565b6000819050919050565b611ff181611fde565b82525050565b600060208201905061200c6000830184611fe8565b92915050565b6000604051905090565b600080fd5b600080fd5b61202f81611fde565b811461203a57600080fd5b50565b60008135905061204c81612026565b92915050565b600080604083850312156120695761206861201c565b5b60006120778582860161203d565b92505060206120888582860161203d565b9150509250929050565b600073ffffffffffffffffffffffffffffffffffffffff82169050919050565b60006120bd82612092565b9050919050565b6120cd816120b2565b82525050565b60006060820190506120e86000830186611fe8565b6120f56020830185611fe8565b61210260408301846120c4565b949350505050565b600080fd5b600080fd5b600080fd5b60008083601f84011261212f5761212e61210a565b5b8235905067ffffffffffffffff81111561214c5761214b61210f565b5b6020830191508360a082028301111561216857612167612114565b5b9250929050565b6000806000604084860312156121885761218761201c565b5b60006121968682870161203d565b935050602084013567ffffffffffffffff8111156121b7576121b6612021565b5b6121c386828701612119565b92509250509250925092565b6000602082840312156121e5576121e461201c565b5b60006121f38482850161203d565b91505092915050565b60008115159050919050565b612211816121fc565b82525050565b60006101208201905061222d600083018c611fe8565b61223a602083018b611fe8565b612247604083018a611fe8565b6122546060830189611fe8565b6122616080830188611fe8565b61226e60a0830187611fe8565b61227b60c0830186611fe8565b61228860e0830185612208565b612296610100830184612208565b9a9950505050505050505050565b6000601f19601f8301169050919050565b7f4e487b7100000000000000000000000000000000000000000000000000000000600052604160045260246000fd5b6122ed826122a4565b810181811067ffffffffffffffff8211171561230c5761230b6122b5565b5b80604052505050565b600061231f612012565b905061232b82826122e4565b919050565b600067ffffffffffffffff82111561234b5761234a6122b5565b5b602082029050602081019050919050565b600080fd5b600060a082840312156123775761237661235c565b5b61238160a0612315565b905060006123918482850161203d565b60008301525060206123a58482850161203d565b60208301525060406123b98482850161203d565b60408301525060606123cd8482850161203d565b60608301525060806123e18482850161203d565b60808301525092915050565b60006124006123fb84612330565b612315565b90508083825260208201905060a0840283018581111561242357612422612114565b5b835b8181101561244c57806124388882612361565b84526020840193505060a081019050612425565b5050509392505050565b600082601f83011261246b5761246a61210a565b5b813561247b8482602086016123ed565b91505092915050565b6000806000806080858703121561249e5761249d61201c565b5b60006124ac8782880161203d565b94505060206124bd8782880161203d565b93505060406124ce8782880161203d565b925050606085013567ffffffffffffffff8111156124ef576124ee612021565b5b6124fb87828801612456565b91505092959194509250565b612510816120b2565b811461251b57600080fd5b50565b60008135905061252d81612507565b92915050565b6000806040838503121561254a5761254961201c565b5b60006125588582860161251e565b92505060206125698582860161203d565b9150509250929050565b60006060820190506125886000830186611fe8565b6125956020830185612208565b6125a26040830184612208565b949350505050565b7f4e487b7100000000000000000000000000000000000000000000000000000000600052602160045260246000fd5b600381106125ea576125e96125aa565b5b50565b60008190506125fb826125d9565b919050565b600061260b826125ed565b9050919050565b61261b81612600565b82525050565b60006020820190506126366000830184612612565b92915050565b600081519050919050565b600082825260208201905092915050565b60005b8381101561267657808201518184015260208101905061265b565b60008484015250505050565b600061268d8261263c565b6126978185612647565b93506126a7818560208601612658565b6126b0816122a4565b840191505092915050565b600060208201905081810360008301526126d58184612682565b905092915050565b7f4e6f74416c6c52657665616c6564000000000000000000000000000000000000600082015250565b6000612713600e83612647565b915061271e826126dd565b602082019050919050565b6000602082019050818103600083015261274281612706565b9050919050565b7f4f6d656761416c7265616479436f6d706c657465640000000000000000000000600082015250565b600061277f601583612647565b915061278a82612749565b602082019050919050565b600060208201905081810360008301526127ae81612772565b9050919050565b7f4e487b7100000000000000000000000000000000000000000000000000000000600052601260045260246000fd5b600081905092915050565b60006127fa8261263c565b61280481856127e4565b9350612814818560208601612658565b80840191505092915050565b600061282c82856127ef565b915061283882846127ef565b91508190509392505050565b600061284f82611fde565b915061285a83611fde565b92508261286a576128696127b5565b5b828206905092915050565b7f4e487b7100000000000000000000000000000000000000000000000000000000600052601160045260246000fd5b60006128af82611fde565b91507fffffffffffffffffffffffffffffffffffffffffffffffffffffffffffffffff82036128e1576128e0612875565b5b600182019050919050565b60006080820190506129016000830187611fe8565b61290e6020830186611fe8565b61291b6040830185611fe8565b6129286060830184612208565b95945050505050565b7f4e487b7100000000000000000000000000000000000000000000000000000000600052603260045260246000fd5b7f477265617465724f72457175616c5468616e4e00000000000000000000000000600082015250565b6000612996601383612647565b91506129a182612960565b602082019050919050565b600060208201905081810360008301526129c581612989565b9050919050565b7f544e6f744d617463686564000000000000000000000000000000000000000000600082015250565b6000612a02600b83612647565b9150612a0d826129cc565b602082019050919050565b60006020820190508181036000830152612a31816129f5565b9050919050565b600060a08284031215612a4e57612a4d61201c565b5b6000612a5c84828501612361565b91505092915050565b7f5265636f764e6f744d6174636858000000000000000000000000000000000000600082015250565b6000612a9b600e83612647565b9150612aa682612a65565b602082019050919050565b60006020820190508181036000830152612aca81612a8e565b9050919050565b6000608082019050612ae660008301876120c4565b612af36020830186611fe8565b612b006040830185611fe8565b612b0d6060830184611fe8565b95945050505050565b6000612b2182611fde565b9150612b2c83611fde565b9250828201905080821115612b4457612b43612875565b5b92915050565b7f4e487b7100000000000000000000000000000000000000000000000000000000600052602260045260246000fd5b60006002820490506001821680612b9157607f821691505b602082108103612ba457612ba3612b4a565b5b50919050565b60008190508160005260206000209050919050565b60008154612bcc81612b79565b612bd681866127e4565b94506001821660008114612bf15760018114612c0657612c39565b60ff1983168652811515820286019350612c39565b612c0f85612baa565b60005b83811015612c3157815481890152600182019150602081019050612c12565b838801955050505b50505092915050565b6000612c4e8284612bbf565b915081905092915050565b7f436f6d6d697452657665616c4475726174696f6e4c6573735468616e436f6d6d60008201527f69744475726174696f6e00000000000000000000000000000000000000000000602082015250565b6000612cb5602a83612647565b9150612cc082612c59565b604082019050919050565b60006020820190508181036000830152612ce481612ca8565b9050919050565b7f53746167654e6f7446696e697368656400000000000000000000000000000000600082015250565b6000612d21601083612647565b9150612d2c82612ceb565b602082019050919050565b60006020820190508181036000830152612d5081612d14565b9050919050565b60006020601f8301049050919050565b600082821b905092915050565b600060088302612da47fffffffffffffffffffffffffffffffffffffffffffffffffffffffffffffffff82612d67565b612dae8683612d67565b95508019841693508086168417925050509392505050565b6000819050919050565b6000612deb612de6612de184611fde565b612dc6565b611fde565b9050919050565b6000819050919050565b612e0583612dd0565b612e19612e1182612df2565b848454612d74565b825550505050565b600090565b612e2e612e21565b612e39818484612dfc565b505050565b5b81811015612e5d57612e52600082612e26565b600181019050612e3f565b5050565b601f821115612ea257612e7381612baa565b612e7c84612d57565b81016020851015612e8b578190505b612e9f612e9785612d57565b830182612e3e565b50505b505050565b600082821c905092915050565b6000612ec560001984600802612ea7565b1980831691505092915050565b6000612ede8383612eb4565b9150826002028217905092915050565b612ef78261263c565b67ffffffffffffffff811115612f1057612f0f6122b5565b5b612f1a8254612b79565b612f25828285612e61565b600060209050601f831160018114612f585760008415612f46578287015190505b612f508582612ed2565b865550612fb8565b601f198416612f6686612baa565b60005b82811015612f8e57848901518255600182019150602085019450602081019050612f69565b86831015612fab5784890151612fa7601f891682612eb4565b8355505b6001600288020188555050505b505050505050565b600061012082019050612fd6600083018c6120c4565b612fe3602083018b611fe8565b612ff0604083018a611fe8565b612ffd6060830189611fe8565b61300a6080830188611fe8565b61301760a0830187611fe8565b61302460c0830186611fe8565b61303160e0830185611fe8565b61303f610100830184611fe8565b9a9950505050505050505050565b7f4e6f74436f6d6d69747465645061727469636970616e74000000000000000000600082015250565b6000613083601783612647565b915061308e8261304d565b602082019050919050565b600060208201905081810360008301526130b281613076565b9050919050565b7f416c726561647952657665616c65640000000000000000000000000000000000600082015250565b60006130ef600f83612647565b91506130fa826130b9565b602082019050919050565b6000602082019050818103600083015261311e816130e2565b9050919050565b7f414e6f744d61746368436f6d6d69740000000000000000000000000000000000600082015250565b600061315b600f83612647565b915061316682613125565b602082019050919050565b6000602082019050818103600083015261318a8161314e565b9050919050565b600061319c82611fde565b9150600082036131af576131ae612875565b5b600182039050919050565b7f416c7265616479436f6d6d697474656400000000000000000000000000000000600082015250565b60006131f0601083612647565b91506131fb826131ba565b602082019050919050565b6000602082019050818103600083015261321f816131e3565b9050919050565b600060a08201905061323b60008301886120c4565b6132486020830187611fe8565b818103604083015261325a8186612682565b90506132696060830185611fe8565b6132766080830184611fe8565b9695505050505050565b7f46756e6374696f6e496e76616c69644174546869735374616765000000000000600082015250565b60006132b6601a83612647565b91506132c182613280565b602082019050919050565b600060208201905081810360008301526132e5816132a9565b9050919050565b60006132f782611fde565b915061330283611fde565b925082613312576133116127b5565b5b828204905092915050565b7f416c6c46696e6973686564000000000000000000000000000000000000000000600082015250565b6000613353600b83612647565b915061335e8261331d565b602082019050919050565b6000602082019050818103600083015261338281613346565b9050919050565b600061339482611fde565b915061339f83611fde565b92508282026133ad81611fde565b915082820484148315176133c4576133c3612875565b5b5092915050565b60006133d782846127ef565b91508190509291505056fea2646970667358221220d8bdd09496faa056c6480c2a8b5a2ff22e9da9f8ee2724cddba97f35160eab9f64736f6c63430008130033",
  "linkReferences": {},
  "deployedLinkReferences": {}
}